:020000040800F2
:100000004070002081020008B9750008D160000826
:10001000B57500083D17000849A30008000000005E
:10002000000000000000000000000000C101000806
:10003000D5310008000000001D0200088D91000865
:100040009B0200089B0200089B0200089B0200081C
:100050009B0200089B0200089B0200089B0200080C
:100060009B0200089B0200089B0200089B020008FC
:100070009B0200089B0200089B0200089B020008EC
:100080009B0200089B0200089B0200089B020008DC
:10009000A11700089B0200089B0200089B020008B1
:1000A0009B0200089B0200089B0200089B020008BC
:1000B0009B0200089B0200089B0200089B020008AC
:1000C0009B0200089B0200089B0200089B0200089C
:1000D0009B020008119900089B020008259900085E
:1000E0009B0200089B0200089B0200089B0200087C
:1000F0009B0200089B0200089B0200089B0200086C
:100100009B0200089B0200089B0200089B0200085B
:100110009B0200089B020008919200089B020008C5
:100120009B0200089B0200089B0200089B0200083B
:100130009B0200089B0200089B0200089B0200082B
:10014000111800089B0200089B0200089B0200088F
:100150009B0200089B0200089B0200089B0200080B
:100160009B0200089B0200089B0200089B020008FB
:100170009B0200089B0200089B0200080000000090
:100180009B0200089B0200089D930008B1930008A1
:100190009B0200089B0200089B0200089B020008CB
:1001A00000000000000000009B020008DFF80CD0F7
:1001B00001F0B4F800480047C5D2000840700020A4
:1001C0002C4B19680868B0E8F04F80F30988BFF33A
:1001D0006F8F4FF0000080F311887047000000001F
:1001E00008480068006880F308884FF0000080F33A
:1001F000148862B661B6BFF34F8FBFF36F8F00DF15
:1002000000BF00BF08ED00E0DFF80C00016841F41A
:1002100070010160704700BF88ED00E0EFF30980D6
:10022000BFF36F8F134B1A681EF0100F08BF20ED3D
:10023000108A20E9F04F106009B44FF0500080F3AD
:100240001188BFF34F8FBFF36F8F0DF0EFFF4FF0AB
:10025000000080F3118809BC19680868B0E8F04F05
:100260001EF0100F08BFB0EC108A80F30988BFF3AE
:100270006F8F704700040020EFF305807047000087
:100280000648804706480047FEE7FEE7FEE7FEE730
:10029000FEE7FEE7FEE7FEE7FEE7FEE775920008F1
:1002A000AD01000870B405880E884468D1F804C018
:1002B0005368B54208D140884988884201BF1188F7
:1002C0008D425188884203D070BC6FF002007047A5
:1002D00005FB00F1880827D094ED001ADCED000A38
:1002E00094ED010ADCED011A31EE201AD4ED020A78
:1002F00070EE211A9CED020A83ED001AC3ED011A7B
:1003000094ED031ADCED031A30EE800A401E71EE04
:10031000210A83ED020A04F11004C3ED030A03F17C
:1003200010030CF1100CD7D111F0030030D0B0F154
:10033000004F30D200282BDD211F1B1FACF104021F
:1003400010F0010F0AD091ED010AD2ED010A091D4A
:10035000121D30EE200A83ED010A1B1D400817D044
:1003600091ED010AD2ED010A401E30EE200A83ED24
:10037000010A91ED020AD2ED020A01F1080102F12F
:10038000080230EE200A83ED020A03F10803E7D1E8
:1003900070BC00207047B4EC010A401EFCEC010A5E
:1003A00030EE200AA3EC010AF5D1F1E7018042808A
:1003B000436070472DE9F34F84B004984068009083
:1003C000486801900498B0F800E04588DFEDFE0A27
:1003D00000200290B0EE600AAE4506D10888498838
:1003E000884204BF7146864504D06FF0020006B013
:1003F000BDE8F08F01985FEA010C18BFB7EE001A54
:100400003DD000BFBEEB0C0117D0B1F1004F80F022
:100410001F82002911DD021F11F0010F1CBFC2ED68
:10042000010A121D4B1006D0C2ED010AC2ED020AEC
:1004300008325B1EF8D100EB8100BCF10102A0EC98
:10044000011A19D0B2F1004F80F00882002A13DDA2
:10045000031F12F0010F1CBFC3ED010A1B1D511039
:1004600008D000BFC3ED010AC3ED020A491E03F123
:100470000803F7D100EB8200BCF1010CC2D14FF0B0
:1004800000080395002D14BFB0EE602A002000F094
:10049000BF8100BF009908FB05F001EB800B0199BB
:1004A000DBED002A01EB80000346F0EE421AC64560
:1004B00052D9AEEB0802ABEB850112F0010F17D059
:1004C00001EB850191ED000AB5EEC00AF1EE10FADC
:1004D00007DDB4EEE10AF1EE10FA09DDF0EE401AA4
:1004E00006E0B1EE400AF4EEC01AF1EE10FAF5D3D0
:1004F000521031D001EB850C9CED000AB5EEC00A1C
:10050000F1EE10FA05DDB4EEE10AF1EE10FA09DDC4
:1005100006E0B1EE400AF4EEC01AF1EE10FA01D294
:10052000F0EE401A01EBC50191ED000AB5EEC00AEC
:10053000F1EE10FA05DDB4EEE10AF1EE10FA09DD94
:1005400006E0B1EE400AF4EEC01AF1EE10FA01D264
:10055000F0EE401A521ECDD1F5EEC01AF1EE10FAAF
:1005600000F07381F5EEC02A0126F1EE10FA009931
:10057000D4BFB1EE620AB0EE620AB4EE610AF1EEE7
:1005800010FA1CBFAEEB0802B2F1010C47D005FB1C
:1005900008F201EB820292ED001A00BFB0EE410AB0
:1005A00005FB06F4B5EEC00A00EB8404F1EE10FA88
:1005B000CCBFF0EE400AF1EE400AF4EE610AF1EE33
:1005C00010FA28D1B5EB080C11D0BCF1004F7DD248
:1005D000BCF1000F0BDD00BF92ED000AD1ED000A67
:1005E000BCF1010CE2EC010AA1EC010AF4D12900F2
:1005F0000ED0B1F1004F6AD2002909DD94ED000A56
:10060000D0ED000A491EE4EC010AA0EC010AF5D184
:10061000012002900BE0761CBCF1010CBED10298C7
:10062000012804D0F5EEC02AF1EE10FA7ED09BED41
:10063000000AB5EB08009A465946064622D0B0F1AA
:10064000004F74D200281DDD091F10F0010F06D0E5
:10065000F0EE400A80EEA01A81ED011A091D40104B
:1006600010D000BFD1ED010A401E80EE801A81ED4E
:10067000011A91ED021AC1EE000AC1ED020A01F160
:100680000801EFD1280026D0B0F1004F7ED200281B
:1006900021DDAAF1040110F0010F06D0D1ED010A0D
:1006A00080EE801A81ED011A091D401013D000BFA1
:1006B000D1ED010A401E80EE801A81ED011AD1EDC4
:1006C000020A80EE801A81ED021A01E0CBE0D6E04A
:1006D00001F10801ECD1DDE900124FF000095FEAF9
:1006E0000E0773D0C14504BF01EB860102EB850202
:1006F00074D091ED000ADC465046331E35D01C46BE
:10070000B6F1004F7ED2002C2FDD0B1FABF1040C95
:1007100016F0010F0FD0F0EE400ADCED011AB0EE3A
:10072000601A00EEE11A83ED011A01E08DE0B1E0FC
:100730001B1D0CF1040C741015D000BFD3ED010A81
:100740009CED011A40EE410AC3ED010AD3ED020A05
:100750009CED021A0CF1080C40EE410AC3ED020AAE
:100760000833641EEAD101EB86012B0036D0B3F1C9
:10077000004F72D2002B31DDA2F1040CAAF104006B
:1007800013F0010F0CD0DCED010A00E08BE090EDDE
:10079000011A001D40EE410ACCED010A0CF1040CD7
:1007A0005C1019D0DCED010A90ED011A40EE410A0F
:1007B000CCED010ADCED020A90ED021A083040EEA1
:1007C000410ACCED020A03E0000000000DE005E064
:1007D000641E0CF1080CE5D102EB830201EB8801E9
:1007E0007F1E09F101097FF47DAF009808F101082F
:1007F000001D00900398401E03907FF44BAE0299B9
:10080000012900E058E004BF06B0BDE8F08F00BF4A
:10081000B5EEC00AF1EE10FA7FF4E9AD04990EFBD3
:1008200005F3002B4A684FF000010BD902EB810C55
:100830009CED000AB5EEC00AF1EE10FA02D1491C97
:100840008B42F3D88B427FF4D2AD6FF00400CEE53B
:10085000E0EC010A491EFBD1EFE538E0E0EC010ACB
:10086000521EFBD108E692ED000AD1ED000ABCF160
:10087000010CE2EC010AA1EC010AF4D1B7E694ED17
:10088000000AD0ED000A491EE4EC010AA0EC010ABE
:10089000F5D1BDE6D1ED000A401E80EE801AA1EC34
:1008A000011AF7D1EEE6D3ED000A401E80EE801A61
:1008B000A3EC011AF7D10EE7BCEC011AD1ED000A46
:1008C0005B1E40EE410AE1EC010AF5D14DE7B0ECC8
:1008D000011AD2ED000A5B1E40EE410AE2EC010A69
:1008E000F5D17BE72DE9F04F82B04668536801935C
:1008F000058847884B88002000900888874201BF00
:10090000B2F800C06545528893421EBF6FF00200E6
:1009100002B0BDE8F08F9FED412A4FEA970EC7F372
:10092000400B00BFDDE9000202EB800A4A689846EE
:100930004FF00009B0EE420AB4465FEA0E0025D03F
:1009400092ED001ADCED001A02EB8302DCED010AE5
:1009500001EE810A92ED001A02EB8302401ED2EDF5
:10096000001A02EB830200EE810A9CED021ADCED14
:10097000030A00040CF1100C000C01EE210A92EDA8
:10098000001A02EB830200EE810AD9D117F00300AE
:1009900026D0ACF10404A2EB830210F0010F08D0C2
:1009A00002EB8302D4ED010A92ED001A241D00EE41
:1009B000810A5FEA0B0013D002EB830CD4ED010A2D
:1009C0009CED001A02EBC302401E00EE810AD4ED3A
:1009D000020A92ED001A04F1080400EE810AEBD13C
:1009E00009F10100AAEC010A1FFA80F9486800EB3E
:1009F0008902A8F101001FFA80F8B8F1000F99D11F
:100A0000009806EB8706184480B20090681E050423
:100A10002D0C87D102B00020BDE8F08F000000004F
:100A200070B405880E884468D1F804C05368B54294
:100A300008D140884988884201BF11888D42518879
:100A4000884203D070BC6FF00200704705FB00F1D4
:100A5000880827D094ED001ADCED000A94ED010A15
:100A6000DCED011A31EE601AD4ED020A70EE611A63
:100A70009CED020A83ED001AC3ED011A94ED031AEE
:100A8000DCED031A30EEC00A401E71EE610A83ED00
:100A9000020A04F11004C3ED030A03F110030CF180
:100AA000100CD7D111F0030030D0B0F1004F30D28C
:100AB00000282BDD211F1B1FACF1040210F0010FD9
:100AC0000AD091ED010AD2ED010A091D121D30EE86
:100AD000600A83ED010A1B1D400817D091ED010A41
:100AE000D2ED010A401E30EE600A83ED010A91ED5D
:100AF000020AD2ED020A01F1080102F1080230EE09
:100B0000600A83ED020A03F10803E7D170BC0020FC
:100B10007047B4EC010A401EFCEC010A30EE600A9A
:100B2000A3EC010AF5D1F1E72DE9F04F02884768FF
:100B3000B0F802804888D1F8049082B04FF0000AE3
:100B40001646824207BF098888456FF0020002B04E
:100B500018BFBDE8F08F4FEA980B02EB42000190FE
:100B6000C8F34000CDF8000009EB8A01BBF1000F8B
:100B700033D0019801EB820C01EB80043B46E64642
:100B800001EBC2054FEA0B0093ED000A401E81ED18
:100B9000000A93ED010A01EB02118CED000A93EDBE
:100BA000020A0CEB021C85ED000A93ED030A05EB2B
:100BB000021584ED000A04EB021403F11003E3D1E3
:100BC0000EEB820000EB820000EB8201ABF1010032
:100BD000504307EB0B1701EB001118F0030C21D069
:100BE0003B1FA1EB82011CF0010F06D093ED010A1F
:100BF00001EB82011B1D81ED000A009880B100BF4E
:100C000093ED010A01EB820401EBC20184ED000ABD
:100C100093ED020A401E81ED000A03F10803EFD1B3
:100C200007EB8C070AF101001FFA80FA701E060418
:100C3000360C99D102B00020BDE8F08F2DE9F05FAD
:100C40000546002092469B4688460646814640243B
:100C50001BE0284641464746224600F072FA5346BA
:100C60005A46C01A914110D311461846224600F048
:100C700059FA2D1A67EB01084F4622460120002140
:100C800000F050FA17EB00094E41201EA4F10104B8
:100C9000DFDC484631462A464346BDE8F09F40EA3D
:100CA00001039B0703D009E008C9121F08C0042AEA
:100CB000FAD203E011F8013B00F8013B521EF9D2D1
:100CC0007047D2B201E000F8012B491EFBD27047F9
:100CD0000022F6E710B513460A4604461946FFF708
:100CE000F0FF204610BD2DE9FE4F804681EA03004B
:100CF000C00F0C46009021F0004123F00045B8EBF6
:100D00000200A94105D24046214690461C460B46AA
:100D1000024623F00040104347D0270DC7F30A00D6
:100D2000C3F30A510290401A019040286BDAC3F3D2
:100D3000130040F4801B0098924620B10023D2EBB0
:100D4000030A63EB0B0B01985946C0F14002504671
:100D500000F0E8F906460D4650465946019A00F063
:100D600000FA10EB08006141002487EA115284EA7E
:100D7000E7731A4340D0009A62B3019A012A4FEAFE
:100D8000075215DC001B61EB02014FF0004202EA42
:100D90000752CDE90042001C41F5801132462B4636
:100DA00000F037FA03B0BDE8F08F40462146F9E77E
:100DB000001B61EB0201001C41F5801300185B4130
:100DC0002018A2F5001747EB030140EAD570B619C9
:100DD0006D4111E06D084FEA360645EAC0754FEAED
:100DE0000752001B61EB0201001C41F5801149080C
:100DF0004FEA30000019514132462B4603B0BDE89E
:100E0000F04F00F0F7B90098012240000023D0EB2A
:100E1000020263EBE073009821464FEAE074B8EBFE
:100E2000000061EB0401E9E783F000435BE781F038
:100E3000004158E72DE9FE4F81EA030404F0004425
:100E400021F0004100944FF0000B23F0004350EAE2
:100E500001045ED052EA03045BD0C3F30A54C1F329
:100E60000A552C44A4F2F3340194A0FB0254C1F3BC
:100E7000130141F48011C3F3130343F4801301FB06
:100E8000024400FB034E840A970A44EA815447EA6D
:100E90008357A4FB076802958D0A05FB07854FEA77
:100EA000932C04FB0C542705029D4FEA065847EA91
:100EB0001637B5EB08056EEB070C870E920E47EA66
:100EC000811742EA8312A7FB0201B6EB0B0164EB28
:100ED00000042B0D43EA0C335E1844EB1C50DA4639
:100EE0005146E7FB0201C5F313044FEA0B3343EA13
:100EF00014534FEA0432019C43EA0603A4F10C04A4
:100F00000294009CCDE900B400F083F903B0BDE881
:100F1000F08F00200146F9E72DE9F04D81EA030446
:100F200004F0004B21F0004514464FF0000A23F076
:100F3000004150EA050220D054EA01021DD0C5F359
:100F40000A570246C5F31303C1F31300C1F30A564F
:100F500040F4801543F48013A7EB0608101BD64617
:100F600008F2FD3873EB050002D308F1010801E037
:100F700092185B41B8F1000F03DA00200146BDE88A
:100F8000F08D00204FF48011064684460EE0171BBA
:100F900073EB050705D3121B63EB050306434CEA0D
:100FA000010C49084FEA300092185B4150EA0107F2
:100FB000EDD152EA030012D082EA040083EA05016F
:100FC000084305D0101BAB4106D20122002306E0E6
:100FD00000224FF0004302E06FF0010253101AEBC1
:100FE00006004CEB085110EB0A0041EB0B01BDE889
:100FF000F04D00F0FFB80EB5C10F80EAE070084474
:10100000CA07002140F233438DE80E000A460B4622
:1010100000F0FFF803B000BD0EB540F2334102917D
:101020000021CDE900110A460B4600F0F2F803B0AA
:1010300000BDC1F30A5210B5C1F3130140F2FF33F2
:1010400041F480119A4201DA002010BD40F233438E
:101050009A42A2F2334203DC524200F072F810BD11
:10106000904010BD00F0004230F000400AD0C10DA9
:1010700001F56071C0F3160042EA0151C208400751
:1010800011437047002001467047000030B5041E30
:1010900071F1000404DB4FF00044404264EB0101B5
:1010A000141E73F1000405DB1C464FF0004352424E
:1010B00063EB04038B4208BF824230BD30B5041E8F
:1010C00071F1000404DB4FF00044404264EB010185
:1010D000141E73F1000405DB1C464FF0004352421E
:1010E00063EB0403994208BF904230BD01F0004316
:1010F00030B421F0004150EA010206D00A0DA2F5F9
:101100006072C1F31301002A02DC30BC002070477A
:10111000440F44EAC104C100E01830BC00EBC250E7
:1011200000F031B8202A04DB203A00FA02F1002056
:1011300070479140C2F1200320FA03F31943904015
:101140007047202A04DB203A21FA02F00021704780
:1011500021FA02F3D040C2F120029140084319461F
:101160007047202A06DBCB17203A41FA02F043EA07
:10117000E07306E041FA02F3D040C2F12002914050
:101180000843194670470029A8BF7047401C490012
:1011900008BF20F00100704710B4B0FA80FC00FADC
:1011A0000CF050EA010404BF10BC704749B1CCF107
:1011B000200421FA04F411FA0CF118BF0121214393
:1011C0000843A3EB0C01CB1D4FEA00614FEA10204E
:1011D00042BF002010BC704700EBC35010440029F0
:1011E000A4BF10BC7047401C490008BF20F001009C
:1011F00010BC704710B5141E73F1000408DA401CCF
:1012000041F1000192185B411A4301D120F0010025
:1012100010BD2DE9F04D92469B4611B1B1FA81F215
:1012200002E0B0FA80F220329046FFF77BFF0446DE
:101230000F4640EA0A0041EA0B0153465A4608436A
:1012400013D0114653EA010019D0C8F140025046AC
:10125000FFF777FF05460E46504659464246FFF7D0
:1012600061FF084305D0012004E020463946BDE86F
:10127000F08D0020054346EAE0762C4337430A9878
:101280006305E40AA0EB08000022FD0A44EA475483
:101290000A3002D500200146E9E70105101969412D
:1012A000DDE9084500196941BDE8F04DA2E770B5D8
:1012B00021F0004303430CD0C1F30A550024D5EBC1
:1012C000040564EB0403D617AD1AB34102DB00201A
:1012D000014670BD201841EB025170BD70B5C1F3DD
:1012E0000A5201F000450024C1F3130140F2FF331C
:1012F00041F480119A4201DA002070BD40F233437C
:101300009A42A2F2334203DC5242FFF71AFF00E096
:1013100090402C43F1D0404270BD0000064C074D78
:1013200006E0E06840F0010394E8070098471034B5
:10133000AC42F6D3FEF73EFF28F4000848F400085C
:101340002DE9F04D00231A461B1A8A4103DB0020C9
:101350000146BDE8F08DC1F30A52C1F3130141F417
:1013600080154FF0000BD10702D100186D41521EBD
:101370000027044640F2FF11384601EB620A3E4660
:101380008046024600204FF48011FFF7DAFEC219B2
:101390007141BB1846EB0100B4EB030C75EB000C7C
:1013A00004D3E41A65EB000517460E46241908F12C
:1013B00001006D4180463428E3DDF91946EB060053
:1013C000091BA84103D24FF0FF32134601E000226F
:1013D00013461BEB070046EB0A51BDE8F04DFFF743
:1013E00009BF70B58C1810F8015B15F0070301D127
:1013F00010F8013B2A1106D110F8012B03E010F878
:10140000016B01F8016B5B1EF9D12B0705D400239A
:10141000521E0DD401F8013BFAE710F8013BCB1A3C
:10142000921C03E013F8015B01F8015B521EF9D531
:10143000A142D8D3002070BDF0B505ACF0CCDFF8E8
:1014400028C0ACF80000ACF80210ACF80420ACF8EE
:101450000630DFF818C0CCF80040CCF80450CCF8C7
:101460000860CCF80C70F0BDC2230020D42300200B
:1014700030B5002200210020AA250346401C6A4CFA
:10148000E55401250346401CE554AF250346401CA6
:10149000E554F1250346401CE55400250446401C54
:1014A000614B1D55614BB3F900301D120346401CC2
:1014B0005D4CE5545D4B1B785DB20346401CE55422
:1014C0005A4BB3F902301D120346401CE554574BEA
:1014D0009B785DB20346401CE554544BB3F904308D
:1014E0001D120346401CE554504B1B795DB2034668
:1014F000401CE5544D4BB3F906301D120346401C09
:10150000E5544A4B9B795DB20346401CE554484B79
:101510001B681D160346401CE554454B1B681B0CFD
:101520005DB20346401CE554414B1B881B0A5DB26B
:101530000346401CE5543E4B1B785DB20346401CFD
:10154000E5543B4B5B681D160346401CE554384B85
:101550005B681B0C5DB20346401CE554344B9B8812
:101560001B0A5DB20346401CE554314B1B795DB24A
:101570000346401CE5542E4B9B681D160346401C39
:10158000E5542B4B9B681B0C5DB20346401CE55495
:10159000274B1B891B0A5DB20346401CE554244BB4
:1015A0001B7A5DB20446401C1F4B1D55204BDB6867
:1015B0001D160346401C1C4CE5541D4BDB681B0CE0
:1015C0005DB20346401CE554194B9B891B0A5DB272
:1015D0000346401CE554164B1B7B5DB20346401C82
:1015E000E554431F5BB2237100BF04E00E4B5B5C0C
:1015F00013445AB2491C8142F8DB0346401C0A4C92
:10160000E25400210CE000BF0A4B1B6803F04003CA
:10161000002BF9D0044B5B56074C24686360491CCF
:101620008142F0DB30BD00009F230020C223002058
:10163000D42300200014014060080020D0ED000AEF
:10164000F4EEC00AF1EE10FA02DD80ED000A0CE0C3
:10165000D0ED000AB1EE401AF4EEC10AF1EE10FA34
:1016600003D2F1EE400AC0ED000A704710B5002029
:10167000044908730449086880470449886880471A
:1016800010BD00007C2E00204803002084030020B1
:1016900010B5234948688047224890ED030AD0EDF1
:1016A000020AB4EE600AF1EE10FA29D11E48807ADF
:1016B00018B11D48807A012803D11C490869804768
:1016C0001EE01948807A022807D01748807A03283C
:1016D00003D01548807A042803D11449C86880478C
:1016E0000EE01148807A052803D1104988688047A8
:1016F00006E00D48807A062802D10C4948688047E8
:1017000009488079012806DB42F210700849886098
:101710000020084988800848C1680648884710BDED
:1017200048030020C42D0020E82D0020A003002045
:101730007C2E00204C2E00208403002000BFFEE7FA
:1017400010B500F011F8074803F097F808B100BF92
:10175000FEE704480068406940F00200014909685A
:10176000486110BDC006002000B58BB00E200A9065
:101770000020069007900120089000200190029020
:101780000390049005900120099001A9034802F0FC
:1017900039FC08B100BFFEE70BB000BDC006002059
:1017A00010B5024802F07EFD10BD0000C00600200A
:1017B00010B500F011F8074803F05FF808B100BF5A
:1017C000FEE704480068406940F0020001490968EA
:1017D000486110BDE806002000B58BB000200A90DB
:1017E000069007900120089000200190029003903D
:1017F000049005900120099001A9044802F002FC20
:1018000008B100BFFEE70BB000BD0000E8060020F5
:1018100010B5024802F046FD10BD0000E8060020A9
:101820002DE9F84381460E4615461F46002015490E
:10183000C86008468660806810B90846056005E003
:1018400010488068042801D10E48456008200D49E1
:101850000861002008750846D0F81080002405E0D3
:10186000395D084818300155601CC4B24445F7D3AF
:101870006B46044A18320349484602F017FBBDE89C
:10188000F8830000A80A0020F0EE400A0268521C0B
:10189000026090ED021A00EE101AB8EE400AB4EEA3
:1018A000401AF1EE10FA19D090ED010A30EEC01A8C
:1018B000D0ED021A00EE101AB8EE400A30EE610ABE
:1018C000C1EE001AC0ED031AC0ED010A00EE101AB5
:1018D000B8EE400A80ED020A002202600268C82ABF
:1018E00003DD9FED030A80ED030A90ED030A7047C4
:1018F00000000000F0EE400A0268521C026090ED09
:10190000021A00EE101AB8EE400AB4EE401AF1EED8
:1019100010FA1DD090ED010A30EEC01AD0ED021A77
:1019200000EE101AB8EE400A70EE611A81EE210A3C
:10193000B0EE001A20EE010A80ED030AC0ED010AA4
:1019400000EE101AB8EE400A80ED020A0022026092
:101950000268C82A03DD9FED030A80ED030A90EDBB
:10196000030A7047000000008EB000BF4FF0FF3246
:1019700005A91B4800680CF04BFE0446012CF5D16C
:1019800040F205210598884208D1142209A9684629
:10199000FFF785F905A80FC802F02AF940F20621E1
:1019A0000598884208D1142209A96846FFF777F9FB
:1019B00005A80FC802F076F80598B0F5017F04D0AD
:1019C00040F2032105988842D0D1142209A9684623
:1019D000FFF765F905A80FC805F092FAC6E7000001
:1019E000000000208EB000BF4FF0FF3205A9124862
:1019F00000680CF00DFE0446012CF5D140F2951163
:101A00000598884208D1142209A96846FFF747F9CA
:101A100005A80FC801F0CCF940F26511059888427D
:101A2000E2D1142209A96846FFF739F905A80FC8C1
:101A300001F0E6F9D8E700000400002010B52DED14
:101A4000068B0BF0E3FAFE48007A88BB9FEDFD0A97
:101A5000FD4880ED020A9FEDFB0A80ED030A9FED31
:101A6000F90A80ED080A9FEDF70A006880ED2F0A59
:101A7000F54A506AF54A91688847F34A906BF44AF0
:101A800091688847F04A906AF14A91688847002037
:101A9000F04908600021EC4880F878100020EE49F9
:101AA0000870EE484068EE490860BDEC068B10BD3A
:101AB000FFE7E348007A012815D19FEDE20AE248EA
:101AC00080ED030AE748B0F9040000EE100AB8EE12
:101AD000C00AF2EE040A20EE200ADB4880ED080A74
:101AE00080ED020A2EE0D648007A022803D1DE49B2
:101AF0008868804726E0D248007A032803D1DA4973
:101B0000C86880471EE0CE48007A042803D1D64931
:101B1000C869804716E0CA48007A052803D1D2492F
:101B2000C86980470EE0C648007A062803D1CE492E
:101B3000086A804706E0C248007A072802D1CA49ED
:101B4000886A8047C04890ED080A80ED020AD0ED0F
:101B5000040AB0EE600A00F11401083001F04CFEF6
:101B6000B948D0ED040AB0EE600A00F118010C305B
:101B700001F042FEB44890ED061AF0EE410A90EDF5
:101B8000051AB0EE410A1C3005F0B0FCAE4890EDED
:101B9000070A006880ED310AA948007A032807D0B7
:101BA000A748007A072803D0B048007801282FD131
:101BB000A54A506AA54A91688847A34A92ED0C1A33
:101BC000F0EE410A92ED0D1AB0EE410A906BA04A78
:101BD000516888479C4A1268B2F9022001EE102A27
:101BE000B8EEC11AF0EE410A974A926B92ED111AC3
:101BF000B0EE410A944A906A954A516888479248E3
:101C0000806A90ED110A9048006880ED2F0A26E066
:101C10008D4A906B8E4A916888478B4A906A8C4AAD
:101C200091688847884A1268B2F9022001EE102AAA
:101C3000B8EEC11AF0EE410A834A126892ED311AE9
:101C4000B0EE410A804A506A804A516888477E480F
:101C5000406A90ED120A7C48006880ED2F0A8448A3
:101C600090ED9D0AF0EE400A7D4890ED000AB8EE36
:101C7000C00A804805F062FEBDEEC00A7E4880EDD5
:101C8000000A7B48B0F9AA0100EE100AB8EEC00ABB
:101C9000F0EE400A784890ED000AB8EEC00A7748A6
:101CA00005F04CFEBDEEC00A6A4880ED000A0BF05C
:101CB0008DF86348007A042803D06148007A05282B
:101CC0007ED101206049496881F878005E4840680B
:101CD00090F87800F0B95C48406890ED040AB8EEDE
:101CE000C00A5948D0ED100A9FED651A70EEC10A7E
:101CF000B4EEE00AF1EE10FA22DD0068B0F902005D
:101D00001E281DDD0121504880F87D1001205D490D
:101D1000087015E05C480069B0F57A7F10DD5A481C
:101D2000C06832280CDA48480068B0F902001E2862
:101D300006DD0121444880F87D10012051490870DA
:101D40004148406890F87800F8B93F48406890ED05
:101D5000040AB8EEC00A3C48D0ED110A9FED481ABB
:101D600070EE810AB4EEE00AF1EE10FA24D20068B7
:101D7000B0F9020010F11E0F1EDA0120324981F87D
:101D80007C0002203F49087016E040480069B0F529
:101D90007A7F11DD3D48C06832280DDA2A48006894
:101DA000B0F9020010F11E0F06DA0120264981F871
:101DB0007C00022033490870234890F87C0000E042
:101DC000B0E1012804D0204890F87D00012836D1E8
:101DD0009FED1C0A1C48006880ED2F0A1A4890F8F5
:101DE0007D0001287AD11848B0F88000401C81B2EB
:101DF0001548A0F88010406890F87800F0B91248B3
:101E0000406890ED040AB8EEC00A0F48D0ED100A01
:101E10009FED1F1A70EEC10AB4EEE00AF1EE10FA5F
:101E200005D20068B0F9020010F11E0F04DB06486D
:101E3000B0F88000962851DD00212BE04FE003E14F
:101E4000E82D00200000000068260020E8030020A4
:101E5000DC030020C4030020DA0300208C2E0020C5
:101E6000BC0300205C130020CC00002004010020F3
:101E7000180E00209C2E0020C0030020F42E00200D
:101E80000000C845C8000020B0250020E025002043
:101E900000C0F345BB4880F87D1090ED080A10EEB5
:101EA000101A0846FFF7DEF841EC1A0BB0EE4A0AAA
:101EB000F0EE6A0A09F0B4FAB0EE409AF0EE609AD9
:101EC00051EC190B81F0004141EC180BFFF70EF9B2
:101ED000AC4908620021AB48A0F86E1063E0AA4844
:101EE0000069642835DDA848C0681E2806DDA548BD
:101EF0000068B0F9020010F11E0F04DBA148B0F831
:101F0000800096284FDD00219E4880F87D1090EDDE
:101F1000080A10EE101A0846FFF7A4F841EC1A0B55
:101F2000B0EE4A0AF0EE6A0A09F07AFAB0EE409A88
:101F3000F0EE609A51EC190B81F0004141EC180B66
:101F4000FFF7D4F88F49086200218E48A0F86E1080
:101F500029E08C48B0F88000962824DD00218948CB
:101F600080F87D1090ED080A10EE101A0846FFF771
:101F700079F841EC1A0BB0EE4A0AF0EE6A0A09F061
:101F80004FFAB0EE409AF0EE609A51EC190B81F0E6
:101F9000004141EC180BFFF7A9F87A4908620021CB
:101FA0007848A0F86E10774890F87C0001284BD153
:101FB0007448B0F87E00401C81B27248A0F87E10D0
:101FC000406890F87800E0BB6E48406890ED040AE5
:101FD000B8EEC00A6B48D0ED110A1FED531A70EE2F
:101FE000810AB4EEE00AF1EE10FA04DD0068B0F9FF
:101FF00002001E2804DC6348B0F87E00962823DD2A
:102000000020604981F87C00084690ED080A10EE37
:10201000101A0846FFF726F841EC190BB0EE490AF2
:10202000F0EE690A09F0FCF9B0EE408AF0EE608A41
:1020300051EC180BFFF75AF8524908620021514839
:1020400000E002E0A0F86E105CE0504800696428EF
:1020500031DD4E48C0681E2805DD4A480068B0F9E9
:1020600002001E2804DC4748B0F87E00962849DDAF
:102070000020444981F87C00084690ED080A10EEE3
:10208000101A0846FEF7EEFF41EC190BB0EE490AB4
:10209000F0EE690A09F0C4F9B0EE408AF0EE608A09
:1020A00051EC180BFFF722F8364908620021354839
:1020B000A0F86E1026E03348B0F87E00962821DDA7
:1020C0000020304981F87C00084690ED080A10EEA7
:1020D000101A0846FEF7C6FF41EC190BB0EE490A8C
:1020E000F0EE690A09F09CF9B0EE408AF0EE608AE1
:1020F00051EC180BFEF7FAFF224908620021214833
:10210000A0F86E101F4890F87D0018B900211D48F6
:10211000A0F880101B4890F87C0018B900211948DD
:10212000A0F87E101A480078012805D11FEDBB0ADF
:102130001448006880ED2F0A00200AE01149096860
:1021400091ED2F0A0F499C3101EB800181ED000ACE
:10215000401C0128F2DB01220A499C310D4805F0A0
:1021600061FD00200AE007499C3101EB800191EDFF
:10217000000A0449096881ED2F0A401C0128F2DB9E
:1021800000BF92E468260020B0250020E025002052
:1021900080030020302E002010B56B486B4908608A
:1021A0006B4848606B49486880476A4908688047BF
:1021B000B7EE000A654880ED040A006808306349FC
:1021C00048620846006864308862084640681830F3
:1021D00088636148C1F898000A46506A5F4A9FEDDB
:1021E000605ADFED604A9FED604ADFED603A9FED97
:1021F000603ADFED602A9FED5F2ADFED5F1A9FED09
:102200005D1AF5EE000AB2EE010A116888474F4ADE
:10221000906B5A4A9FED5A5ADFED5A4A9FED554A44
:10222000DFED543A9FED523ADFED522A9FED512AED
:10223000DFED501A9FED4F1ADFED4E0AB1EE040AA2
:1022400011688847414A906A4C4A9FED455ADFED34
:10225000454A9FED4D4ADFED4D3A9FED453ADFEDA2
:10226000452A9FED442ADFED4A1A9FED421ADFED21
:10227000410AB2EE090A1168884740489FED455A65
:10228000DFED454ABAEE044AF2EE043A9FED383AE1
:10229000DFED382A9FED372ADFED401A9FED351A22
:1022A000DFED340A9FED3E0A01683E488847334817
:1022B0009FED355ADFED354A9FED3B4ADFED3B3A66
:1022C0009FED2B3ADFED2B2A9FED2A2ADFED381AFE
:1022D0009FED281ADFED370AB0EE080A016836488C
:1022E00088473648008900EE100AB8EE400ADFED54
:1022F000340AB4EE600AF1EE10FA03D1002031493D
:10230000087702E001202F49087701210F4880F863
:1023100072104FF49671A0F8541041F270700B498E
:10232000A1F8500042F228310848A0F8521004F0F9
:1023300019F99FED250A054880ED100A9FED230A43
:1023400080ED110A10BD00009410002068260020C6
:10235000FC160020CC00002014270020E8030020F9
:1023600000007AC600007A4600401CC600401C46A9
:102370009A99593F0000000000409C46DC03002071
:1023800000A08CC500A08C4500007AC500007A45ED
:102390000000C84300C05AC500C05A4500409C45D3
:1023A0009A99993E9C2E00200000FAC30000FA433F
:1023B00000803B450AD7233CF42E00200118002062
:1023C0000000484378170020F0237449F02374C9B3
:1023D00010B5B7EE000A174880ED0B0A164B022223
:1023E00011461648FDF7E2FF154B0222114615482B
:1023F000FDF7DCFF00211448C0F898109FED130A88
:10240000D0F89C0080ED100A9FED100A0E48D0F81D
:102410009C0080ED140A0E48C06990ED000A0D483A
:1024200080ED010A0A48806990ED000A094880EDB4
:10243000000A10BD742D0020C80100207C2C002053
:10244000AC020020142D0020FC270020000000001A
:102450002C2700209C28002010B5E149086A8047FD
:10246000DF4908688047DE4908698047DD48407ACF
:1024700048BBDD48806990ED000ADB4880ED010A29
:10248000C06990ED000AD84880ED020A9FEDD70A96
:1024900080ED0A0A9FEDD50A80ED0B0A0246506CCA
:1024A000D34A91688847D04A906CD14A916888474E
:1024B000CD4AD06CCE4A91688847CB4A106DCC4A41
:1024C0009168884710BDC748407A02285ED1C64847
:1024D0000078022821D1C44890ED010AC548B0F91E
:1024E000000000EE900AF8EEE00A9FEDC31A00EE3D
:1024F000810ABD4880ED010A90ED020ABD48B0F99D
:10250000020000EE900AF8EEE00A9FEDBC1A00EE21
:10251000810AB54880ED020A46E0B34840780128B8
:1025200042D1B448B0F9000000EE100AB8EEC00A7B
:10253000F6EE000A20EE200AF7EE000A60EE200A0E
:102540009FEDAF1A80EE810AA748D0ED010A30EE68
:10255000200A80ED010AA748B0F9020000EE100A37
:10256000B8EEC00ADFEDA70A20EE200AF7EE000A57
:1025700020EE200ADFEDA20A80EE201A9A4890EDA4
:10258000020A31EE000A80ED020A0DE09548407A19
:10259000032803D192494869804705E09148407A71
:1025A000012801D107F0B4FF8E48407A012801D0FC
:1025B000FFF70EFF8C4890ED020AC06BD0ED000AC9
:1025C000B4EEE00AF1EE10FA07D28748C06B90ED46
:1025D000000A854880ED020A11E0834890ED020A66
:1025E000C06BD0ED010AB4EEE00AF1EE10FA06DDA0
:1025F0007D48C06B90ED010A7B4880ED020A7A4865
:10260000D0ED030AB0EE600A00F11001001D01F0E8
:10261000F3F87548D0ED030AB0EE600A00F114013A
:10262000083001F0E9F86F48407A012878D16E4A05
:10263000506C6F4A916888476B4A906C6C4A9168FD
:102640008847694AD06C6A4A91688847664A106D23
:10265000674A916888476448806990ED000A62483B
:1026600080ED010AC06990ED000A5F4880ED020A22
:102670000246926992ED001AF0EE410A624A92ED2A
:10268000001AB0EE410AD2F8C802594A5168884788
:10269000554A126A92ED001AF0EE410A5A4AD2F8EF
:1026A000C82292ED111AB0EE410A574AD2F8CC0274
:1026B0004F4A516888475448D0F8CC0290ED110A2F
:1026C000494880ED0A0A0246D26992ED001AF0EEFE
:1026D000410A4D4A92ED011AB0EE410AD2F8D002F9
:1026E000434A51688847404A526A92ED001AF0EE18
:1026F000410A454AD2F8D02292ED111AB0EE410AB1
:10270000414AD2F8D4023A4A516888473E48D0F844
:10271000D40290ED110A344880ED0B0A5EE0FFE729
:10272000394AD2F8C802324A91688847364AD2F804
:10273000CC022F4A91688847334AD2F8D0022C4AFB
:1027400091688847304AD2F8D402294A916888476C
:10275000254A926992ED001AF0EE410A224A92ED62
:10276000041AB0EE410A506C214A516888471E4A4B
:10277000126A92ED001AF0EE410A1B4A526C92ED79
:10278000111AB0EE410A184A906C194A51688847EC
:10279000154880ED0A0A0246D26992ED001AF0EE61
:1027A000410A024692ED051AB0EE410AD06C104A79
:1027B000516888470C4A526A92ED001AF0EE410ABD
:1027C000094AD26C92ED111AB0EE410A064A106D18
:1027D000074A51688847044880ED0B0A00BF71E63C
:1027E00044010020E82D00202C27002000000000DC
:1027F000DC0300205C130020CDCC4C3D0AD7233CE9
:1028000083F9A2449A99993E9C28002018481949B6
:10281000C863194808640846006B1C3048640846C1
:10282000006B743088640846406B1C30C8640846EE
:10283000406B743008650846006B183088610846A4
:10284000406B1830C8610846806990ED000A084660
:1028500080ED010AC06990ED000A084680ED020A89
:10286000006B001D08620846406B001D48627047FF
:10287000300100202C270020C827002010B5154863
:102880008078012825D1134A506C134A91688847F3
:10289000104A906C104A916888470E4AD06C0E4AD4
:1028A000916888470B4A106D0B4A91688847094820
:1028B0000078012803D109498869804706E0054866
:1028C0000078022802D10549C869804700200149E3
:1028D000887010BD2C270020DC030020440100205C
:1028E00014481549C86315480864154848645830A9
:1028F00088645830C864583008650846806B0C30CE
:1029000088610846806B1C30C8610846806990ED7C
:10291000000A084680ED010AC06990ED000A0846E9
:1029200080ED020A806B203008620846806B2430FC
:1029300048627047802700202C2700209427002021
:102940004424002010B52DED068B4A48406B90EDD5
:10295000060A4948D0ED000A30EE600A10EE101A5F
:102960000846FEF77FFB41EC1A0BB0EE4A0AF0EE88
:102970006A0A08F055FDB0EE409AF0EE609A51EC0C
:10298000190BFEF7B3FB00EE100ADFED3C0A80EEF8
:10299000201AB0EE418A3748406B90ED060A36485F
:1029A000D0ED010A30EE600A10EE101A0846FEF76C
:1029B00059FB41EC1A0BB0EE4A0AF0EE6A0A08F035
:1029C0002FFDB0EE409AF0EE609A51EC190BFEF735
:1029D0008DFB00EE100ADFED290A80EE201AF0EEE2
:1029E000418A2448406B90ED060A2348D0ED000A46
:1029F000B4EEE00AF1EE10FA03D29FED210AB0EE38
:102A0000408A1C48406B90ED060A1B48D0ED010A35
:102A1000B4EEE00AF1EE10FA03DD9FED190AF0EED4
:102A2000408A1448806B90ED070A30EE480A15483A
:102A300080ED000A0F48806B90ED070A30EE280AFF
:102A4000104880ED010A90ED000AD0ED010A30EE49
:102A5000200AF0EE000A80EE201A80ED021A9FEDA7
:102A60000A0A80ED030A9FED060A80ED040ABDEC18
:102A7000068B10BD2C27002030010020610BB641D1
:102A800000000000802700200000B44310B5B7EE1E
:102A9000000A144880ED030A134812490863D43031
:102AA000486312488863124908688047104948689B
:102AB00080470F49886880470D49C86880470C499E
:102AC000086A804707480078012803D108498869C7
:102AD000804706E003480078022802D10449C8690B
:102AE000804710BD2C270020C80A00201C2400208D
:102AF0004401002010B56F489FED6F5ADFED6F4A1B
:102B00009FED6F4ADFED6F3A9FED6F3ADFED6D2A73
:102B10009FED6C2ADFED6B1A9FED6A1ADFED690AF3
:102B2000BAEE080A01686948884762489FED685A0A
:102B3000DFED684A9FED684ADFED683A9FED623A43
:102B4000DFED602A9FED5F2ADFED651A9FED651AC4
:102B5000F2EE050A9FED640A01685C485830884728
:102B600054489FED625ADFED624A9FED554ADFED12
:102B7000553A9FED553ADFED532A9FED522ADFED8E
:102B8000511A9FED501ADFED4F0AB3EE090A0168A2
:102B90004E48B030884747489FED4D5ADFED4D4ACB
:102BA0009FED544ADFED543A9FED473ADFED452A59
:102BB0009FED442ADFED4E1A9FED421ADFED4F0ADA
:102BC0009FED4F0A01684F4888474F4A126B02F148
:102BD0001C00384A9FED385ADFED384A9FED384ADD
:102BE000DFED383A9FED383ADFED362A9FED352A92
:102BF000DFED341A9FED331ADFED320A9FED310A13
:102C000011688847404A126B02F17400294A9FED0F
:102C1000305ADFED304A9FED3D4ADFED3D3A9FED02
:102C20002A3ADFED282A9FED272ADFED261A9FEDAD
:102C3000251ADFED240A9FED230A11688847324ADE
:102C4000526B02F11C001B4A9FED1B5ADFED1B4A21
:102C50009FED1B4ADFED1B3A9FED1B3ADFED192A72
:102C60009FED182ADFED171A9FED161ADFED150AF2
:102C70009FED140A11688847234A526B02F17400D1
:102C80000C4A9FED135ADFED134A9FED204ADFED0A
:102C9000203A9FED0D3ADFED0B2A9FED0A2ADFED7A
:102CA000091A9FED081ADFED070A9FED060A116861
:102CB000884710BDDC030020000016C40000164445
:102CC00000000080000000009A99593F4424002031
:102CD00000B0E1C600B0E14600409CC500409C4504
:102CE0000000A0420000964400004844000096C343
:102CF0000000964300803BC500803B45CDCC4C4056
:102D00000000AA434C2500202C27002000401CC6B0
:102D100000401C4610B52DED048B20480088401C57
:102D20001E49088008460088B0F5FA6F22DA1C4870
:102D300090ED080A10EE101A0846FEF793F941ECE0
:102D4000190BB0EE490AF0EE690A08F069FBB0EE23
:102D5000408AF0EE608A9FED130B53EC102B51EC80
:102D6000180BFEF793F90CD09FED100A0C4880ED7C
:102D7000080A06E009480088B0F5FA6F01DD05F0A1
:102D80005DF90648008841F29411884202DD002076
:102D900002490880BDEC048B10BD00002801002012
:102DA00068260020000000000070B7400080BB458E
:102DB0000FB410B540F295110298884202D010BCB1
:102DC0005DF814FB002004E009A9095C0A4A1154CB
:102DD000401C0828F8DB0949A1F1080001F010F8AF
:102DE00006480838C068401C04490839C8600020FB
:102DF000087400BFE3E7000088000020FC230020E7
:102E00000FB410B540F265110298884202D010BC90
:102E10005DF814FB002004E009A9095C0A4A11547A
:102E2000401C0828F8DB0949A1F1080000F0E8FF80
:102E300006480838C068401C04490839C8600020AA
:102E4000087400BFE3E70000900000201024002079
:102E50000146087810381823B0FBF3F20848805C6C
:102E6000C865032A05D908686FF30900001D886545
:102E700003E008686FF309008865886D70470000FB
:102E8000DEF00008014600208A6A8B69CBB932B1B6
:102E9000012A0DD0022A03D0032A10D10EE000BF70
:102EA000CB6A03F08073B3F1807F00D1012007E08B
:102EB000CB6AB3F1C07F00D1012001E000E000BF88
:102EC00034E08B69B3F5005F1AD132B1012A07D023
:102ED000022A03D0032A11D10AE000BF01200EE02C
:102EE000CB6A03F08073B3F1807F00D1012006E04C
:102EF000CB6AB3F1C07F00D1012000E000BF15E034
:102F000032B1012A05D0022A04D0032A0CD103E0F1
:102F100000BF00BF012008E0CB6A03F08073B3F16B
:102F2000807F00D1012000E000BF00BF704730B5B6
:102F30000468246824F4802405682C6004686360B5
:102F40008468402C04D10468A2600468E16003E056
:102F50000468A1600468E26030BD000008B5034663
:102F60001868006800F0100010282ED11868C0689A
:102F700000F0100048B300BF0020009018680068FF
:102F8000009018684068009000BF00BF586B006850
:102F9000006820F00100596B09680860586B0068F0
:102FA0004068022805D1094800F014F801200849BA
:102FB00008701420596B09684860586B00680068F5
:102FC00040F00100596B0968086008BD48130020F3
:102FD000AC00002000B970470178427841EA022134
:102FE000C1F30A014A4A118011460988A1F580619E
:102FF00009B211804178C910827841EA4211C1F3C7
:103000000A01434A518011464988A1F5806109B2FD
:10301000518081788911C27841EA8201027941EABE
:103020008221C1F30A013A4A918011468988A1F5AB
:10303000806109B2918001794910427941EAC21157
:10304000C1F30A01324AD1801146C988A1F58061D5
:1030500009B2D18041790911890811724179C1F30E
:1030600001115172017C427C41EA0221C1F30A0143
:10307000274A518111464989A1F5806109B25181E0
:103080001146B1F90010142907DC1146B1F90010FE
:1030900011F1140F01DB002111801D49B1F902105B
:1030A000142908DC1A49B1F9021011F1140F02DBDE
:1030B0000021174A51801649B1F90410142908DC7F
:1030C0001349B1F9041011F1140F02DB0021104A69
:1030D00091800F49B1F90610142908DC0C49B1F9A7
:1030E000061011F1140F02DB0021094AD1800849B2
:1030F000B1F90A10142908DC0549B1F90A1011F1D7
:10310000140F02DB0021024A518100BF63E7000077
:103110005C13002010B5002004E00A49095C0A4A4B
:103120001154401C1228F8DB00F010F801200AF0BE
:10313000F0F800F027F801200AF0EBF800F014F89E
:1031400010BD0000481300204D26002010B5044B90
:1031500040F2351200210348FEF762FB10BD00006B
:103160004D260020E806002010B5044B40F2331233
:1031700000210348FEF754FB10BD00005D2600202F
:10318000E806002010B5044B4FF49A720021034862
:10319000FEF746FB10BD000055260020E806002083
:1031A00008B50BF0CFFB009000BF00BF074948688F
:1031B000804706F005FE06F063FF0549C86A8047B0
:1031C000012168460AF0C0FEF0E70000CC000020B4
:1031D000500300207047000042F2107002498860DE
:1031E00000200249888070477C2E00204C2E002051
:1031F00001460868B0F90200002803DD0868B0F94C
:10320000020003E00868B0F902004042B1F918205A
:10321000904201DA012070470020FCE710B5044617
:10322000A748807A18B1A648807A01281DD10020CD
:10323000A080A0712074002161832162A162A04856
:10324000807A00287ED19FED9F0A206880ED2E0AAB
:10325000226802F160009C4A91688847226802F166
:103260000800994A9168884710BD207C012855D1F3
:10327000618BA08B81427FDD2046FFF7B9FF88B3C9
:10328000608B401C6083628BA18B92FBF1F000EBA2
:10329000D0714910A0EB410169B92C21095D0129C8
:1032A00009D100212C2001550422D4E9090102FB97
:1032B0001011A16216E0628BA18B92FBF1F000EB82
:1032C000D0714910A0EB410101290BD12C21095DDE
:1032D00041B901212C2001550422D4E9090102FB46
:1032E0000011A1622068D0F8C410A06A081A002852
:1032F00005DD2068D0F8C410A06A081A04E021682F
:10330000A06AD1F8C410401A48F6FB71884206DC66
:1033100000202074002161832162A1622CE02268D8
:1033200092ED311AB8EEC11AF0EE410A94ED0A1A84
:10333000B8EEC11AB0EE410A02F16000624A51686B
:10334000884700E07FE02268B2F9022001EE102AEF
:10335000B8EEC11AF0EE410A226892ED291AB0EED9
:10336000410A02F10800584A51688847206890EDE8
:10337000130A80ED2E0A77E7A08800286EDDA07979
:1033800090B9206800F00AF92068D0F8BC10A08835
:1033900048F6FB72504394F9072000FB02102168A5
:1033A000C1F8BC000120A0712068D0F8C4002168D9
:1033B000D1F8BC10401A002807DD2068D0F8C400FE
:1033C0002168D1F8BC10401A06E02068D0F8BC0093
:1033D0002168D1F8C410401AB0F5905F19DA20893D
:1033E000A188084420812089C0F1FA0000B2A081A0
:1033F000B4F90C00002801DA0020A0810020A08090
:10340000A0710120A073002020740021618321623B
:10341000A1622046FFF7ECFEB0B1608B401C6083D8
:10342000618BA08B81421FDD2068D0F8C41021621F
:103430000222D4E9081002FB0011A16201212C2014
:103440000155012020740FE0608B002803DD608BA4
:103450000A38608308E00021618305E02068D0F825
:10346000C4002168C1F8BC00226892ED311AB8EEA0
:10347000C11AF0EE410A92ED2F1AB8EEC11AB0EE61
:10348000410A02F16000104A516888472268B2F987
:10349000022001EE102AB8EEC11AF0EE410A2268AD
:1034A00092ED291AB0EE410A02F10800064A51686D
:1034B0008847206890ED130A80ED2E0A00BFD3E6FE
:1034C000E82D002000000000DC03002010B52A4891
:1034D0002A49086008460068D0F8C4000968C1F8A5
:1034E000BC0001202549C87140F2145123480183D2
:1034F0002321818390F9070048F6FB7148431F4957
:1035000048620A46126802F160001D4A9FED1D5A8A
:10351000DFED1D4A9FED1D4ADFED1D3A9FED1C3A80
:10352000DFED1B2A9FED1A2ADFED191A9FED181AFD
:10353000DFED170A9FED170A116888470F4A1268D6
:1035400002F108000E4A9FED0F5ADFED0F4A9FED82
:103550000F4ADFED0F3A9FED0E3ADFED0D2A9FED9A
:103560000C2ADFED0B1A9FED0A1ADFED090A9FED19
:103570000A0A1168884710BD5C1500204C2E0020F7
:10358000DC03002000401CC600401C4600000080F8
:10359000000000007B14AE3E9A99594000218180C2
:1035A00001888288891A0E4A914202DA0121A0F824
:1035B000C21081880288891A094A914202DA51139D
:1035C000A0F8C2100288B0F9C21002EB4131C0F875
:1035D000C41001888180D0F8C410C0F8BC107047B6
:1035E00090E8FFFF9FED260A264880ED010A9FED37
:1035F000240A80ED020A9FED220A80ED030A9FED66
:10360000200A80ED040A9FED1E0A80ED180A9FED46
:103610001C0A80ED190A9FED1A0A80ED050A9FED3C
:10362000180A80ED060A9FED160A80ED070A9FED45
:10363000140A80ED080A9FED120A80ED0B0A9FED37
:10364000100A80ED0C0A9FED0E0A80ED0D0A9FED29
:103650000C0A80ED0E0A9FED0A0A80ED110A9FED1B
:10366000080A80ED120A9FED060A80ED150A9FED0B
:10367000040A80ED160AC82002490880704700003D
:1036800000000000DC2B00200D48006B18300D49B5
:1036900008609FED0D0A084680ED010A9FED0B0AB8
:1036A00080ED020A9FED0A0A80ED030A9FED070AEA
:1036B00080ED040A9FED050A80ED050A70470000C1
:1036C0002C2700201427002000307C45000000003B
:1036D000DB0F493A1648406B183016490860164807
:1036E0004860001D8860001DC8609FED140A0846F0
:1036F00080ED040A012008759FED110A084680ED4F
:10370000060AB7EE000A80ED070A012081F82000C2
:103710000748006B1430486207480C308862001D6F
:10372000C8629FED080A084680ED0C0A7047000049
:103730002C270020C82700203001002000000000B6
:1037400035FA8E3C0000004610B512484068007CF7
:10375000114908700F484068008A000A48700D48F7
:1037600040680069000C88700A4840680069000ED3
:10377000C8700A480068642190FBF1F201FB120056
:1037800030B9054B4FF4A97200210548FEF748F8FF
:1037900010BD000068260020A8000020BC0000200A
:1037A000E80600207047000010B52DED068B04469A
:1037B0002046FDF731FC41EC1A0B53EC1A2B9FED20
:1037C0000A0B51EC100BFDF7A7FB41EC190B9FED19
:1037D000080B53EC102BFDF72DFB41EC180BFDF7FC
:1037E00028FCBDEC068B10BD000000000000F03F7F
:1037F0000000000000408F40D0ED000A91ED001A5B
:1038000030EEC11AD1ED000A40EE010AC1ED000A06
:103810007047F0EE400AC0ED000A90ED030A90ED0B
:10382000021AD0ED001A01EE210A80ED010A90ED96
:10383000070A90ED051A20EE010A90ED081AD0ED66
:10384000061A01EE210A80ED040A90ED070A90EDB8
:103850000B1A20EE011AD0ED0C1A90ED0D0A01EEB4
:10386000210A80ED0A0A90ED0A0A90ED0F1A20EE67
:10387000011A90ED020AD0ED0A1A60EE211A90EDBD
:103880000F2A90ED100A01EE820AC1EE001AC0ED77
:103890000E1A90ED010A90ED021AD0ED041A01EE15
:1038A000610A90ED041AD0ED0E1A01EE801A80ED37
:1038B000111A90ED130A90ED0E1AD0ED021A01EED6
:1038C000610A90ED0A1A20EE010A80ED120A90EDCD
:1038D000110A80ED050A90ED120A80ED0B0A90EDB9
:1038E000110A7047B7EE001A80ED021AB7EE001AFF
:1038F00080ED071A90ED071A80ED0C1AC0ED0D0A45
:1039000090ED021A80ED0F1A80ED100A9FED061A55
:1039100080ED051AB7EE001A80ED0B1AB7EE001A0B
:1039200080ED131A704700000000000010B50C2055
:10393000044988600449086880470449C869804789
:1039400010BD00007C2E0020A003002050030020AA
:1039500010B52DED0E8B9FED3E0BB0EE40AAF0EEB4
:1039600060AA9FED3D0BB0EE40BAF0EE60BA9FED5D
:103970003A0BB0EE408AF0EE608A9FED370BB0EE66
:10398000409AF0EE609A9FED360BB0EE408AF0EE72
:10399000608AB0EE4A1AF0EE6A1A9FED330B07F018
:1039A0002FFFB0EE40CAF0EE60CA51EC180B81F068
:1039B000004141EC1D0B53EC1C2BFDF7ADFA41EC23
:1039C0001B0B2B4890ED010A10EE101A0846FDF76C
:1039D00049FB41EC1E0BB0EE4A1AF0EE6A1AB0EE4B
:1039E0004E0AF0EE6E0A07F00BFFB0EE40DAF0EE92
:1039F00060DA53EC1B2B51EC1D0BFDF71BFA41EC6D
:103A00001C0B53EC182BFDF76EF941EC190B9FEDD5
:103A1000120B53EC102B51EC190BFDF74FFB11D28D
:103A200053EC192B9FED130B51EC100BFDF774FAAF
:103A300041EC1C0BFDF7FDFA10498860104908683D
:103A4000804702E000200F498880BDEC0E8B10BD3E
:103A50009A9999999999E93F0000000000000000A7
:103A60000000000000003E400000000000C0724066
:103A7000940300200000000000407F407C2E0020C6
:103A8000A00300204C2E002010B56420024988605D
:103A900002490868804710BD7C2E0020A00300204A
:103AA000704700000FB440F206220099914201D005
:103AB00004B070470099A1F205209DF81D109DF8F3
:103AC0001C2041EA022235214143484B23F82120A2
:103AD0009DF81F209DF81E1042EA01210AB23521EF
:103AE000414303EB81014A80352141431A4602EBF1
:103AF0008101B1F9021000EE101AB8EEC00A3521AA
:103B0000414302EB810181ED010A9DF821209DF8DE
:103B1000201042EA01210AB23521414303EB810121
:103B20000A819DF822203521414303EB81018A72ED
:103B3000352141431A4632F821203521414303EB18
:103B40008101B1F91210511A11F5E15F0BDA35213B
:103B500041431A4602EB81014969491C352242431F
:103B600003EB8202516135214143204A02EB81017E
:103B7000B1F91220352141431C4B33F82110511A61
:103B800011F5E15F0BDA352141431A4602EB810161
:103B90004969491E3522424303EB820251613521B6
:103BA0004143124A32F82120352141430F4B03EBA8
:103BB000810149694FF4005303FB012100EE101A03
:103BC000B8EEC00A35214143084A02EB810181ED7C
:103BD000060A3521414332F821100AB2352141430A
:103BE000024B03EB81014A8200BF61E7C80A002053
:103BF0000FB440F205220099914201D004B0704701
:103C00000099A1F205209DF81D109DF81C2041EAA5
:103C1000022235214143484B23F821209DF81F20E3
:103C20009DF81E1042EA01210AB23521414303EBFF
:103C300081014A80352141431A4602EB8101B1F9E5
:103C4000021000EE101AB8EEC00A3521414302EB13
:103C5000810181ED010A9DF821209DF8201042EAA2
:103C600001210AB23521414303EB81010A819DF80C
:103C700022203521414303EB81018A7235214143E2
:103C80001A4632F821203521414303EB8101B1F975
:103C90001210511A294A91420BDA352141431A4632
:103CA00002EB81014969491C3522424303EB820240
:103CB000516135214143204A02EB8101B1F91220C3
:103CC000352141431C4B33F82110511A1B4A9142B4
:103CD0000BDA352141431A4602EB81014969491E3D
:103CE0003522424303EB8202516135214143124A9E
:103CF00032F82120352141430F4B03EB8101496903
:103D00004FF4005303FB012100EE101AB8EEC00A75
:103D100035214143084A02EB810181ED060A352134
:103D2000414332F821100AB235214143024B03EBE3
:103D300081014A8200BF61E7C80A00209CE6FFFFBC
:103D400030B5034613B94FF6FF7030BD09E013F8E4
:103D5000014B82EA0400C0B2054D35F8100080EA3C
:103D60002222081EA1F10101F1D11046EDE7000069
:103D7000DEEE0008026F521C02670A68526A12B235
:103D80000280B0F90020B0F90830D21A12F5616F44
:103D900002DAC268521CC260B0F90820B0F90030E3
:103DA000D21A12F5616F02DAC268521EC260B0F90F
:103DB0000030C26803EB02320261104A127A042A10
:103DC00003D00E4A127A052A13D141F28833026FCA
:103DD0009A4210DDB0F90820B0F900309A4205D1BE
:103DE000012280F878200022026704E000220267A6
:103DF00001E000220267028802817047E82D00205E
:103E000070B504460D460AF09DFD2060D4E900120D
:103E1000881AFFF7C9FC28602068606070BD000048
:103E200010B54FF480610C4800F03EFF0B4908705C
:103E30004FF40061084800F037FF0849487004213A
:103E4000054800F031FF054988700821024800F05C
:103E50002BFF0249C87010BD0000024098000020EE
:103E600010B54FF48071064800F01EFF05494870F8
:103E70004FF40071024800F017FF0249087010BDAE
:103E8000000002402C00002070B504460D46064894
:103E900001F0F2FB0646281B401CB6FBF0F100FBCC
:103EA0001160204480B270BD10070020F0B50446B8
:103EB0000D461E4694F8207020688368A86800B9F3
:103EC00000E000BF012F01D0022F7CD103F0806001
:103ED00030B903F0006018B903F08050002873D0A7
:103EE000C3F30161022905D9606A40F400006062F1
:103EF0000120F0BD012088403060A86860B9B5F8A5
:103F000000C0E86840EA4C5C206800F5C07000EB37
:103F10000110C0F800C00FE0D5E901C040EACC00B4
:103F2000D5F80CC040EA0C00D4F800C00CF5C07CF9
:103F30000CEB011CCCF80000D5F810C0206800F58F
:103F4000C07000EB0110C0F804C0287D01280ED11C
:103F5000206800F5C07000EB0110406840F4807CE0
:103F6000206800F5C07000EB0110C0F804C0D079E3
:103F7000000692F806C040EA0C4092F805C040EAFC
:103F80000C2C10794CEA000C206800F5C07000EB96
:103F90000110C0F80CC0D078000692F802C040EAC8
:103FA0000C4092F801C040EA0C2092F800C040EAB0
:103FB0000C00D4F800C00CF5C07C0CEB011CCCF854
:103FC0000800206801E016E00FE000F5C07000EB8B
:103FD0000110006840F0010C206800F5C07000EB93
:103FE0000110C0F800C0002083E7606A40F40010B0
:103FF000606201207DE7606A40F4802060620120F9
:1040000077E70000F0B504460A46216894F820508E
:10401000012D01D0022D7ED1424901F500710868C1
:1040200040F001000860086820F47C5008600868CF
:10403000566A40EA06200860107D00F01F06012045
:1040400000FA06F3C8699843C861A1F50071D06908
:10405000C8B9D1F80C029843C1F80C02908880B21C
:10406000968940EA064601F51070576940F83760B6
:10407000108880B2168940EA064601F5107057692B
:1040800000EBC7004660D069012819D1D1F80C02B5
:104090001843C1F80C02908880B2168840EA0646A0
:1040A00001F51070576940F83760908980B2168921
:1040B00040EA064601F51070576900EBC7004660FC
:1040C000906928B9D1F804029843C1F8040204E0C9
:1040D000D1F804021843C1F80402106928B9D1F8D4
:1040E00014029843C1F8140204E0D1F814021843F2
:1040F000C1F81402106A012804D1D1F81C02184337
:10410000C1F81C02D1F8000220F00100C1F8000241
:104110000020F0BDFFE7606A40F48020606201206B
:10412000F7E7000000640040704770B5044694F85B
:104130002050012D01D0022D7DD151B92068C068D9
:1041400000F0030080B9606A40F400106062012052
:1041500070BD2068006900F0030028B9606A40F46F
:10416000001060620120F3E7206800F5D87000EBD2
:104170000110006800F004009060906840B9206869
:1041800000F5D87000EB01100068400D106007E0EA
:10419000206800F5D87000EB01100068C00850607E
:1041A000206800F5D87000EB0110006800F00200F4
:1041B000D060206800F5D87000EB0110406800F076
:1041C0000F001061206800F5D87000EB0110406806
:1041D00000F47F40000A9061206800F5D87000EB81
:1041E00001104068000C5061206800F5D87000EBA9
:1041F000011080681870206800F5D87000EB01107D
:10420000806800F47F40000A5870206800F5D8707C
:1042100000EB0110806800F47F00000C98702068AB
:1042200000F5D87000EB01108068000ED87020688F
:1042300000F5D87000E02FE000EB0110C0681871A5
:10424000206800F5D87000EB0110C06800F47F40D2
:10425000000A5871206800F5D87000EB0110C068A2
:1042600000F47F00000C9871206800F5D87000EB16
:104270000110C068000ED87131B92068C06840F0E4
:1042800020002668F06005E02068006940F020000A
:104290002668306100205BE7606A40F4802060623D
:1042A000012055E72DE9F05F0446002520684669A6
:1042B0002068D0F80490206887682068D0F80CA0A7
:1042C0002068D0F810B02068D0F8188006F00100FF
:1042D000002855D007F00100C0B101202168886096
:1042E00007F0020018B1204600F0F7FA0EE007F0E0
:1042F000040010B145F4006508E007F0080010B1B3
:1043000045F4805502E0204600F0E6FA07F480709C
:10431000C8B14FF480702168886007F4007018B14C
:10432000204600F0DCFA0EE007F4806010B145F49E
:10433000005508E007F4006010B145F4804502E044
:10434000204600F0CBFA07F48030C8B14FF480303B
:104350002168886007F4003018B1204600F0C1FAE7
:104360000EE007F4802010B145F4004508E007F4A2
:10437000002010B145F4803502E0204600F0B0FA8C
:1043800006F0080038B10AF0100020B145F40075BD
:1043900010202168C86006F0040040B10AF008004F
:1043A00028B108202168C860204600F00FFA06F006
:1043B000020038B12068C06800F0030010B1204648
:1043C00000F006FA06F0400038B10BF0100020B102
:1043D00045F4806510202168086106F0200040B196
:1043E0000BF0080028B1082021680861204600F081
:1043F00041FA06F0100038B12068006900F00300AF
:1044000010B1204600F037FA06F4003040B109F050
:10441000100028B1102021684860204600F02CFAD6
:1044200006F4803040B109F0080028B10820216866
:104430004860204600F056FA06F4004088B309F0C0
:10444000040078B306F4807020B108F0010008B1D0
:1044500045F0010506F4007020B108F0020008B133
:1044600045F0020506F4806020B108F0040008B1B0
:1044700045F0040506F40060A0B108F0700088B1B2
:1044800008F07000402817D006DC10280BD0202838
:104490000CD0302819D10CE0502810D0602814D14D
:1044A00010E01DE019E045F008050FE045F01005AB
:1044B0000CE045F0200509E045F0400506E045F038
:1044C000800503E045F4807500E000BF00BF206870
:1044D000806920F0700021688861042021684860AC
:1044E0002DB1606A284360622046FFF71DFEBDE8DB
:1044F000F09F70B504460CB9012070BD94F82000FF
:1045000010B9204600F0B0F82068006820F00200E2
:104510002168086000F0D0FB05460DE000F0CCFB00
:10452000401B0A2808D9606A40F400306062052008
:1045300084F820000120E0E72068406800F00200D5
:104540000028EBD12068006840F001002168086075
:1045500000F0B2FB05460DE000F0AEFB401B0A2860
:1045600008D9606A40F400306062052084F82000B9
:104570000120C2E72068406800F001000028EBD06D
:10458000207E012806D12068006840F08000216864
:10459000086005E02068006820F08000216808605D
:1045A000607E012806D12068006840F04000216844
:1045B000086005E02068006820F04000216808607D
:1045C000A07E012806D12068006840F02000216804
:1045D000086005E02068006820F02000216808607D
:1045E000E07E012806D12068006820F010002168D4
:1045F000086005E02068006840F01000216808604D
:10460000207F012806D12068006840F0080021685A
:10461000086005E02068006820F008002168086054
:10462000607F012806D12068006840F004002168FE
:10463000086005E02068006820F004002168086038
:10464000D4E90201084321690843616908436168AC
:10465000491E08432168C86100206062012084F877
:104660002000002049E7000010B586B00446142160
:1046700001A8FCF72DFB4F492068884241D14E48E4
:104680000068401C4C4908600846006801280FD1AA
:1046900000BF002000904948006840F00070474982
:1046A00008600846006800F00070009000BF00BF7E
:1046B00000BF0020009041481038006840F008001A
:1046C0003E49103908600846006800F00800009074
:1046D00000BF00BF03200190022002900020039041
:1046E000032004900920059001A9354800F0CEF977
:1046F00000220621142000F089FB142000F076FB34
:1047000055E030492068884251D100BF0020009018
:104710002A48006840F08060284908600846006820
:1047200000F08060009000BF00BF23480068401C7C
:10473000214908600846006801280FD100BF002009
:1047400000901E48006840F000701C490860084650
:10475000006800F00070009000BF00BF00BF0020A4
:10476000009016481038006840F0020013491039D4
:1047700008600846006800F00200009000BF00BF1B
:104780004FF440500190022002900020039003203B
:1047900004900920059001A90B4800F077F9002248
:1047A0000621402000F032FB402000F01FFB06B045
:1047B00010BD000000640040280000204038024086
:1047C000000C0240006800400004024070470000F6
:1047D0001CB504462048844212D12048006878B1B4
:1047E0001F4BA3F11C0200211B48FFF79EFC002376
:1047F00001AA1B491C391948006809F08DFE00BF49
:104800001848844212D11848006878B1174BA3F1B8
:104810001C0200211348FFF788FC00236A46134955
:104820001C391148006809F077FE00BF019838B1C3
:104830004FF080500E490860BFF34F8FBFF36F8F6A
:10484000009838B14FF0805009490860BFF34F8F8E
:10485000BFF36F8F1CBD0000C006002000000020C9
:104860003C0A0020E806002004000020600A002026
:1048700004ED00E070477047704770B5044694F847
:104880002000012822D1022084F82000206800683E
:1048900020F001002168086000F00EFA05460DE0E6
:1048A00000F00AFA401B0A2808D9606A40F4003078
:1048B0006062052084F82000012070BD20684068F7
:1048C00000F001000028EBD16062F6E7606A40F476
:1048D000002060620120F0E7704770477047704722
:1048E000704770477047014691F83500022803D0A1
:1048F0008020486501207047052081F83500086850
:10490000006820F001000A6810600020F3E7000052
:104910002DE9F0410446002500F0CEF9074614B910
:104920000120BDE8F081606A00B100BF00BF002037
:1049300084F8340000BF022084F835002068006845
:1049400020F00100216808600AE000F0B5F9C01B02
:10495000052805D920206065032084F83500E0E7AC
:104960002068006800F001000028EED1206805688A
:1049700021480540D4E901010843E1680843216961
:10498000084361690843A1690843E1690843216A52
:1049900008430543606A042803D1D4E90B010843A6
:1049A0000543206805602068456925F00705606AB1
:1049B0000543606A04280DD1A06A0543E06A48B146
:1049C0002046FEF75FFA28B140206065012084F898
:1049D0003500A6E7206845612046FEF739FA06460D
:1049E00094F85C103F208840B06000206065012092
:1049F00084F83500002094E73F8010F02DE9F04165
:104A000004460D4616461F464FF0000800BF94F8B6
:104A10003400012802D10220BDE8F081012084F891
:104A2000340000BF94F83500012811D1022084F829
:104A30003500002060653B46324629462046FEF799
:104A400076FA2068006840F001002168086006E0FE
:104A500000BF002084F8340000BF4FF00208404639
:104A6000DAE7000070B5044600F026F90646254650
:104A7000681C10B104480078054400BF00F01CF920
:104A8000801BA842FAD370BDFC030020F8B5024693
:104A90000B460025002400200021E6E0012606FA4E
:104AA00001F51E6806EA0504AC4273D15E68012E6A
:104AB00008D05E68022E05D05E68112E02D05E68B6
:104AC000122E13D190684F000326BE40B0434F0012
:104AD000DE68BE4030439060506801268E40B0438F
:104AE0001E79C6F300168E4030435060D0684F00E8
:104AF0000326BE40B0434F009E68BE403043D060A6
:104B00005E68022E02D05E68122E13D1CF0802F129
:104B1000200656F827004E07F70E0F26BE40B0437A
:104B20004F07FF0E1E69BE403043CF0802F120063A
:104B300046F8270010684F000326BE40B0431E7998
:104B400006F003064F00BE40304310605E6806F07A
:104B50008056B6F1805FA8D100BF00260096454E72
:104B6000366846F48046434F3E603E46366806F45B
:104B70008046009600BF00BF3F4E8F0856F82700C2
:104B80008E07370F0F26BE40B0433C4EB24202D1D3
:104B900000262EE068E03A4EB24201D1012628E01C
:104BA000384EB24201D1022623E0374EB24201D143
:104BB00003261EE0354EB24201D1042619E0344EE0
:104BC000B24201D1052614E0324EB24201D106268E
:104BD0000FE0314EB24201D107260AE02F4EB24219
:104BE00001D1082605E02E4EB24201D1092600E08F
:104BF0000A268F073F0FBE4030431F4E8F0846F8EE
:104C00002700284E3068A0435E6806F48036B6F56B
:104C1000803F00D12043234E3060361D3068A043D2
:104C20005E6806F40036B6F5003F00D120431D4E05
:104C3000361D3060361D3068A0435E6806F480166D
:104C4000B6F5801F00D12043164E08363060361D61
:104C50003068A0435E6806F40016B6F5001F00D168
:104C60002043104E0C363060491C1029FFF416AF5B
:104C7000F8BD0000443802400838014000000240FE
:104C80000004024000080240000C024000100240F4
:104C90000014024000180240001C024000200240A4
:104CA00000240240003C0140024613690B400BB156
:104CB000012000E0002070470148006870470000B4
:104CC000F4030020034800680349097808440149B7
:104CD00008607047F4030020FC03002010B50D4865
:104CE000006840F400700B4908600846006840F412
:104CF000806008600846006840F480700860032007
:104D000000F0C2F8002000F007F800F04BF8002097
:104D100010BD0000003C024070B588B0044600257C
:104D2000002600222146362000F070F8362000F0E0
:104D30005DF800BF002001901648006840F01000A8
:104D4000144908600846006800F01000019000BF98
:104D500000BF02A903A800F06DF900F093F9450027
:104D60000D48B5FBF0F0461E0C480D49086040F2B6
:104D7000E7310B48C160466000210161816000F0AD
:104D800017FD20B9064800F02EFD08B070BD0120C7
:104D9000FBE700004038024040420F000010004096
:104DA000680A002008B500BF002000900E48006887
:104DB00040F480400C4908600846006800F48040D8
:104DC000009000BF00BF00BF00200090081F0068D7
:104DD00040F08050091F08600846006800F08050CD
:104DE000009000BF00BF08BD44380240014608469D
:104DF000002809DB00F01F0301229A4043099B00B1
:104E000003F1E023C3F8002100BF70472DE9F05FF4
:104E100080460D461646002705F088FF07463946AE
:104E20002A46334601F00700C0F1070ABAF1040F21
:104E300002D94FF0040A01E0C0F1070AD14600F19F
:104E4000040ABAF1070F02D24FF0000A01E0A0F104
:104E5000030AD4464FF0010A0AFA09FAAAF1010A34
:104E60000AEA020A0AFA0CFA4FF0010B0BFA0CFBE1
:104E7000ABF1010B0BEA030B4AEA0B042146404657
:104E800005F05CFFBDE8F09F00BF00F00702064B95
:104E900019684FF6FF031940044B0B4343EA022104
:104EA000014B196000BF70470CED00E00000FA05EF
:104EB00070B504460D460CB9012070BD5848006815
:104EC00000F00F00A84209D255490D70084600684D
:104ED00000F00F00A84201D00120EEE7207800F09A
:104EE000020002281DD1207800F00400042805D11A
:104EF0004C48006840F4E0504A490860207800F0CF
:104F00000800082805D14748006840F4604045493A
:104F100008604448006820F0F000A1680843414957
:104F20000860207800F00100A8B36068012807D16C
:104F30003C4808380068C0F34040B8B90120BCE7DD
:104F40006068022802D06068032807D13548083815
:104F50000068C0F3406048B90120AEE73148083826
:104F60000068C0F3400008B90120A6E72D4800689A
:104F700020F00300616808432A490860FFF79CFE9F
:104F8000064609E0FFF798FE801B41F2883188420F
:104F900002D9032091E707E02248006800F00C00E6
:104FA0006168B0EB810FEDD11D48006800F00F0083
:104FB000A84209D91A490D700846006800F00F0090
:104FC000A84201D0012078E7207800F004000428EE
:104FD00007D11448006820F4E050E1680843114903
:104FE0000860207800F00800082808D10D48006803
:104FF00020F46040216940EAC1000A49086000F0DD
:1050000061F808490968C1F30311074A515CC840B7
:105010000649086006480068FFF77EFE00204CE75E
:10502000003C024008380240E6F00008600400201E
:10503000F80300200F2202600D4A126802F00302FA
:1050400042600B4A126802F0F0028260084A12685D
:1050500002F4E052C260064A126802F46042D208CA
:105060000261044A126802F00F020A6070470000F1
:1050700008380240003C02400148006870470000C8
:105080006004002000B5FFF7F7FF04490968C1F389
:105090008221034A515CC84000BD0000083802402C
:1050A000F6F0000800B5FFF7E7FF04490968C1F30F
:1050B0004231034A515CC84000BD0000083802403C
:1050C000F6F000082DE9F047002400250026A1464F
:1050D0002548006800F00C0020B1042805D00828FD
:1050E0003AD105E0DFF8849039E0DFF8849036E0CB
:1050F0001D48001F006800F03F041B48001F0068A7
:1051000000F4800078B11A481749091F0968C1F3F3
:105110008811A0FB01700146224600233846FBF7A8
:105120008DFD05460EE011480F49091F0968C1F3BE
:105130008811A0FB01700146224600233846FBF788
:105140007DFD05460848001F0068C0F30140401C73
:105150004600B5FBF6F902E0DFF8109000BF00BF93
:105160004846BDE8F0870000083802400024F400FB
:10517000001BB700F8B504460CB90120F8BD207833
:1051800000F00100002874D0F948006800F00C001D
:1051900004280DD0F648006800F00C00082813D150
:1051A000F348001F006800F48000B0F5800F0BD1B9
:1051B000EF4808380068C0F34040002859D06068C4
:1051C000002856D10120D9E700BF6068B0F5803FC4
:1051D00008D1E7480838006840F48030E4490839CD
:1051E00008601EE06068B0F5A02F0DD1E0480838D7
:1051F000006840F48020DE490839086008460068ED
:1052000040F4803008600CE0D9480838006820F489
:105210008030D749083908600846006820F48020AB
:10522000086000BF606890B1FFF746FD054606E0E4
:10523000FFF742FD401B642801D903209EE7CC48BC
:1052400008380068C0F340400028F1D011E0FFF7B3
:1052500033FD054606E0FFF72FFD401B642801D90A
:1052600003208BE7C24808380068C0F3404000289C
:10527000F1D1207800F0020002285FD1BC4800681C
:1052800000F00C0058B1BA48006800F00C00082883
:105290001CD1B748001F006800F48000B0B9B448C2
:1052A00008380068C0F3400020B1E068012801D050
:1052B000012063E7AE480838006820F0F800216953
:1052C00040EAC100AA490839086037E0E06800B345
:1052D0000120A8490860FFF7EFFC054606E0FFF74C
:1052E000EBFC401B022801D9032047E7A0480838FF
:1052F0000068C0F340000028F1D09D4808380068DD
:1053000020F0F800216940EAC10099490839086095
:1053100014E0002097490860FFF7CEFC054606E040
:10532000FFF7CAFC401B022801D9032026E790485A
:1053300008380068C0F340000028F1D1207800F060
:10534000080008282CD16069A8B101208A490860AA
:10535000FFF7B2FC054606E0FFF7AEFC401B022853
:1053600001D903200AE782486C300068C0F340008E
:105370000028F1D014E000207F490860FFF79CFC72
:10538000054606E0FFF798FC401B022801D90320E0
:10539000F4E677486C300068C0F340000028F1D193
:1053A000207800F00400042870D1002770483830BD
:1053B000006800F0805090B900BF002000906C4859
:1053C0003830006840F0805069493831086008463C
:1053D000006800F08050009000BF00BF01276748C0
:1053E000006800F48070B0B96448006840F48070D0
:1053F00062490860FFF760FC054606E0FFF75CFCC9
:10540000401B022801D90320B8E65C48006800F47C
:1054100080700028F2D000BFA068012808D154484D
:105420006830006840F001005149683108601DE0B3
:10543000A06805280DD14E486830006840F004008F
:105440004B49683108600846006840F00100086078
:105450000CE047486830006820F00100444968319A
:1054600008600846006820F00400086000BFA068DB
:10547000A8B1FFF721FC054609E0FFF71DFC401B22
:1054800041F28831884202D9032077E626E0384885
:1054900068300068C0F340000028EED013E0FFF74A
:1054A0000BFC054608E0FFF707FC401B41F2883182
:1054B000884201D9032061E62D4868300068C0F3B6
:1054C00040000028EFD1012F07D12948383000686B
:1054D00020F0805026493831086000BFA0690028BC
:1054E00045D02348006800F00C0008285DD0A06972
:1054F000022845D100201F490866FFF7DDFB05465D
:1055000006E0FFF7D9FB401B022801D9032035E64E
:10551000174808380068C0F340600028F1D1D4E98A
:1055200007010843616A40EA81110122A06AC2EBC7
:10553000500041EA00412C20005D41EA00600C4926
:10554000091F086001200B490866FFF7B5FB0546F7
:1055500006E0FFF7B1FB401B022801D903200DE64E
:10556000034808380068C0F340600028F1D03FE0ED
:105570000838024000004742800E47420070004059
:1055800000201C490866FFF797FB054606E0FFF779
:1055900093FB401B022801D90320EFE51648006861
:1055A000C0F340600028F2D122E0A069012800D1B8
:1055B000E4E51148001D066806F48001E0698142B7
:1055C00014D106F03F01206A81420FD147F6C07026
:1055D0003040616A884209D106F44031A06A8142B4
:1055E00004D106F07061E06A814201D00120C5E576
:1055F0000020C3E500004742003802402DE9F04199
:1056000004460E46002700BF2079012802D102205F
:10561000BDE8F0810120207100BF6079012822D10E
:1056200002206071FFF748FB05460EE0FFF744FBE0
:10563000401B022809D9012060710220A06000BF30
:105640000020207100BF0120E2E72068406800F0E0
:1056500001000028EAD020688068E060E0683060DF
:105660000120607102E00420A060012700BF00203B
:10567000207100BF3846CBE710B5044604F10C0199
:105680002046FFF7BBFF08B9E06810BD0020FCE72B
:1056900010B504460CB9012010BD607920B9002076
:1056A0002071204600F00EF802206071206800682A
:1056B00040F0040021680860012060710020A060B3
:1056C00000BFE9E708B50A4A016891420FD100BF5F
:1056D000002100910749096841F04001054A116025
:1056E0001146096801F04001009100BF00BF08BDEC
:1056F00000080650343802407047704730B5024603
:105700000B4600BF92F83C00012801D1022030BDB9
:10571000012082F83C0000BF022082F83D001068A2
:1057200044681068816824F07004186804431068A5
:105730004460184D1068A8421BD01068B0F1804F2B
:1057400017D0154D1068A84213D0144D1068A84208
:105750000FD0134D1068A8420BD0124D1068A8420C
:1057600007D0114D1068A84203D0104D1068A84210
:1057700005D121F080015868014310688160012043
:1057800082F83D0000BF002082F83C0000BF00BF4F
:10579000BDE7000000000140000400400008004098
:1057A000000C00400004014000400140001800408F
:1057B00010B504460CB9012010BD94F83D0028B97D
:1057C000002084F83C00204600F00CF8022084F809
:1057D0003D00211D206803F063FD012084F83D0099
:1057E0000020E9E7704701460868C06840F0010002
:1057F0000B68D8600868806800F00702062A05D0A8
:105800000868006840F001000B68186000207047CD
:105810002DE9F04104460D4614B90120BDE8F081A0
:1058200094F83D0028B9002084F83C00204600F0A0
:1058300047F8022084F83D002068806844F20701A0
:10584000884321688860211D206803F029FD2068B5
:10585000D0F80880206886692068076A286840EACE
:10586000080840F203308643A969A86840EA01208D
:10587000064340F60C4086434FF2F0008643E96948
:10588000E86840EA0120064328690001296A40EAE5
:105890000130064327F0220727F088076969686806
:1058A00040EA011007432068C0F80880206886613C
:1058B00020680762012084F83D000020AEE7000068
:1058C00010B586B00446142101A8FBF701FA1A4965
:1058D000206888422ED100BF002000901748006841
:1058E00040F00800154908600846006800F008000C
:1058F000009000BF00BF00BF002000900F4810388C
:10590000006840F001000D49103908600846006841
:1059100000F00100009000BF00BF032001900220B2
:1059200002900120039002200490059001A90448F0
:10593000FFF7ACF806B010BD000C00404038024044
:105940000000024030B504460D4615B1042D0CD1BF
:1059500005E001220021206803F00EFD10E0012285
:105960000421206803F008FD0AE0012200212068DC
:1059700003F002FD01220421206803F0FDFC00BFBA
:1059800000BF2068006840F0010021680860002026
:1059900030BD704710B5044620680069C0F3400070
:1059A000D8B12068C068C0F34000B0B16FF0020009
:1059B00021680861012020772068806900F00300D9
:1059C00018B12046FFF7E5FF05E0204600F0ADF8EE
:1059D000204600F0ABF80020207720680069C0F373
:1059E0008000D8B12068C068C0F38000B0B16FF00B
:1059F000040021680861022020772068806900F493
:105A0000407018B12046FFF7C4FF05E0204600F0C3
:105A10008CF8204600F08AF8002020772068006982
:105A2000C0F3C000D8B12068C068C0F3C000B0B1F6
:105A30006FF0080021680861042020772068C069A1
:105A400000F0030018B12046FFF7A3FF05E0204651
:105A500000F06BF8204600F069F8002020772068FD
:105A60000069C0F30010D8B12068C068C0F300100E
:105A7000B0B16FF01000216808610820207720681D
:105A8000C06900F4407018B12046FFF782FF05E0BE
:105A9000204600F04AF8204600F048F80020207721
:105AA0002068006900F0010058B12068C06800F06B
:105AB000010030B16FF0010021680861204600F05C
:105AC00037F820680069C0F3C01058B12068C0687A
:105AD000C0F3C01030B16FF080002168086120462B
